{
  "contractName": "MyContract",
  "abi": [
    {
      "anonymous": false,
      "inputs": [
        {
          "indexed": true,
          "internalType": "address",
          "name": "user",
          "type": "address"
        },
        {
          "indexed": false,
          "internalType": "string",
          "name": "fileName",
          "type": "string"
        },
        {
          "indexed": false,
          "internalType": "string",
          "name": "caseNumber",
          "type": "string"
        },
        {
          "indexed": false,
          "internalType": "string",
          "name": "ipfsHash",
          "type": "string"
        }
      ],
      "name": "FileUploaded",
      "type": "event"
    },
    {
      "inputs": [
        {
          "internalType": "string",
          "name": "fileName",
          "type": "string"
        },
        {
          "internalType": "string",
          "name": "caseNumber",
          "type": "string"
        },
        {
          "internalType": "string",
          "name": "ipfsHash",
          "type": "string"
        }
      ],
      "name": "uploadFile",
      "outputs": [],
      "stateMutability": "nonpayable",
      "type": "function"
    },
    {
      "inputs": [],
      "name": "getAllFiles",
      "outputs": [
        {
          "components": [
            {
              "internalType": "string",
              "name": "fileName",
              "type": "string"
            },
            {
              "internalType": "string",
              "name": "caseNumber",
              "type": "string"
            },
            {
              "internalType": "string",
              "name": "ipfsHash",
              "type": "string"
            }
          ],
          "internalType": "struct MyContract.FileInfo[]",
          "name": "",
          "type": "tuple[]"
        }
      ],
      "stateMutability": "view",
      "type": "function",
      "constant": true
    },
    {
      "inputs": [],
      "name": "getUserFiles",
      "outputs": [
        {
          "components": [
            {
              "internalType": "string",
              "name": "fileName",
              "type": "string"
            },
            {
              "internalType": "string",
              "name": "caseNumber",
              "type": "string"
            },
            {
              "internalType": "string",
              "name": "ipfsHash",
              "type": "string"
            }
          ],
          "internalType": "struct MyContract.FileInfo[]",
          "name": "",
          "type": "tuple[]"
        }
      ],
      "stateMutability": "view",
      "type": "function",
      "constant": true
    },
    {
      "inputs": [
        {
          "internalType": "string",
          "name": "ipfsHash",
          "type": "string"
        }
      ],
      "name": "getFileByHash",
      "outputs": [
        {
          "components": [
            {
              "internalType": "string",
              "name": "fileName",
              "type": "string"
            },
            {
              "internalType": "string",
              "name": "caseNumber",
              "type": "string"
            },
            {
              "internalType": "string",
              "name": "ipfsHash",
              "type": "string"
            }
          ],
          "internalType": "struct MyContract.FileInfo",
          "name": "",
          "type": "tuple"
        }
      ],
      "stateMutability": "view",
      "type": "function",
      "constant": true
    }
  ],
  "bytecode": "0x608060405234801561001057600080fd5b50611224806100206000396000f3fe608060405234801561001057600080fd5b506004361061004c5760003560e01c8063119429891461005157806392bb481a1461006f578063cecaf69e1461008b578063ff24b5d5146100bb575b600080fd5b6100596100d9565b6040516100669190610ef2565b60405180910390f35b61008960048036038101906100849190610b86565b61032b565b005b6100a560048036038101906100a09190610b45565b6104e9565b6040516100b29190610f80565b60405180910390f35b6100c3610804565b6040516100d09190610ef2565b60405180910390f35b6060600160003373ffffffffffffffffffffffffffffffffffffffff1673ffffffffffffffffffffffffffffffffffffffff168152602001908152602001600020805480602002602001604051908101604052809291908181526020016000905b82821015610322578382906000526020600020906003020160405180606001604052908160008201805461016d906110d5565b80601f0160208091040260200160405190810160405280929190818152602001828054610199906110d5565b80156101e65780601f106101bb576101008083540402835291602001916101e6565b820191906000526020600020905b8154815290600101906020018083116101c957829003601f168201915b505050505081526020016001820180546101ff906110d5565b80601f016020809104026020016040519081016040528092919081815260200182805461022b906110d5565b80156102785780601f1061024d57610100808354040283529160200191610278565b820191906000526020600020905b81548152906001019060200180831161025b57829003601f168201915b50505050508152602001600282018054610291906110d5565b80601f01602080910402602001604051908101604052809291908181526020018280546102bd906110d5565b801561030a5780601f106102df5761010080835404028352916020019161030a565b820191906000526020600020905b8154815290600101906020018083116102ed57829003601f168201915b5050505050815250508152602001906001019061013a565b50505050905090565b6000604051806060016040528085815260200184815260200183815250905060008190806001815401808255809150506001900390600052602060002090600302016000909190919091506000820151816000019080519060200190610392929190610a19565b5060208201518160010190805190602001906103af929190610a19565b5060408201518160020190805190602001906103cc929190610a19565b505050600160003373ffffffffffffffffffffffffffffffffffffffff1673ffffffffffffffffffffffffffffffffffffffff1681526020019081526020016000208190806001815401808255809150506001900390600052602060002090600302016000909190919091506000820151816000019080519060200190610454929190610a19565b506020820151816001019080519060200190610471929190610a19565b50604082015181600201908051906020019061048e929190610a19565b5050503373ffffffffffffffffffffffffffffffffffffffff167fe1216d5eda6e3326e83d8598f4e518c9e474530887dd02de984be32c3795c94e8585856040516104db93929190610f14565b60405180910390a250505050565b6104f1610a9f565b60005b6000805490508110156107c357826040516020016105129190610ec4565b6040516020818303038152906040528051906020012060008281548110610562577f4e487b7100000000000000000000000000000000000000000000000000000000600052603260045260246000fd5b90600052602060002090600302016002016040516020016105839190610edb565b6040516020818303038152906040528051906020012014156107b057600081815481106105d9577f4e487b7100000000000000000000000000000000000000000000000000000000600052603260045260246000fd5b9060005260206000209060030201604051806060016040529081600082018054610602906110d5565b80601f016020809104026020016040519081016040528092919081815260200182805461062e906110d5565b801561067b5780601f106106505761010080835404028352916020019161067b565b820191906000526020600020905b81548152906001019060200180831161065e57829003601f168201915b50505050508152602001600182018054610694906110d5565b80601f01602080910402602001604051908101604052809291908181526020018280546106c0906110d5565b801561070d5780601f106106e25761010080835404028352916020019161070d565b820191906000526020600020905b8154815290600101906020018083116106f057829003601f168201915b50505050508152602001600282018054610726906110d5565b80601f0160208091040260200160405190810160405280929190818152602001828054610752906110d5565b801561079f5780601f106107745761010080835404028352916020019161079f565b820191906000526020600020905b81548152906001019060200180831161078257829003601f168201915b5050505050815250509150506107ff565b80806107bb90611107565b9150506104f4565b506040517f08c379a00000000000000000000000000000000000000000000000000000000081526004016107f690610f60565b60405180910390fd5b919050565b60606000805480602002602001604051908101604052809291908181526020016000905b82821015610a10578382906000526020600020906003020160405180606001604052908160008201805461085b906110d5565b80601f0160208091040260200160405190810160405280929190818152602001828054610887906110d5565b80156108d45780601f106108a9576101008083540402835291602001916108d4565b820191906000526020600020905b8154815290600101906020018083116108b757829003601f168201915b505050505081526020016001820180546108ed906110d5565b80601f0160208091040260200160405190810160405280929190818152602001828054610919906110d5565b80156109665780601f1061093b57610100808354040283529160200191610966565b820191906000526020600020905b81548152906001019060200180831161094957829003601f168201915b5050505050815260200160028201805461097f906110d5565b80601f01602080910402602001604051908101604052809291908181526020018280546109ab906110d5565b80156109f85780601f106109cd576101008083540402835291602001916109f8565b820191906000526020600020905b8154815290600101906020018083116109db57829003601f168201915b50505050508152505081526020019060010190610828565b50505050905090565b828054610a25906110d5565b90600052602060002090601f016020900481019282610a475760008555610a8e565b82601f10610a6057805160ff1916838001178555610a8e565b82800160010185558215610a8e579182015b82811115610a8d578251825591602001919060010190610a72565b5b509050610a9b9190610ac0565b5090565b60405180606001604052806060815260200160608152602001606081525090565b5b80821115610ad9576000816000905550600101610ac1565b5090565b6000610af0610aeb84610fd3565b610fa2565b905082815260208101848484011115610b0857600080fd5b610b13848285611093565b509392505050565b600082601f830112610b2c57600080fd5b8135610b3c848260208601610add565b91505092915050565b600060208284031215610b5757600080fd5b600082013567ffffffffffffffff811115610b7157600080fd5b610b7d84828501610b1b565b91505092915050565b600080600060608486031215610b9b57600080fd5b600084013567ffffffffffffffff811115610bb557600080fd5b610bc186828701610b1b565b935050602084013567ffffffffffffffff811115610bde57600080fd5b610bea86828701610b1b565b925050604084013567ffffffffffffffff811115610c0757600080fd5b610c1386828701610b1b565b9150509250925092565b6000610c298383610e08565b905092915050565b6000610c3c82611028565b610c46818561104b565b935083602082028501610c5885611003565b8060005b85811015610c945784840389528151610c758582610c1d565b9450610c808361103e565b925060208a01995050600181019050610c5c565b50829750879550505050505092915050565b6000610cb182611033565b610cbb818561105c565b9350610ccb8185602086016110a2565b610cd4816111dd565b840191505092915050565b6000610cea82611033565b610cf4818561106d565b9350610d048185602086016110a2565b610d0d816111dd565b840191505092915050565b6000610d2382611033565b610d2d818561107e565b9350610d3d8185602086016110a2565b80840191505092915050565b60008154610d56816110d5565b610d60818661107e565b94506001821660008114610d7b5760018114610d8c57610dbf565b60ff19831686528186019350610dbf565b610d9585611013565b60005b83811015610db757815481890152600182019150602081019050610d98565b838801955050505b50505092915050565b6000610dd5600e8361106d565b91507f46696c65206e6f7420666f756e640000000000000000000000000000000000006000830152602082019050919050565b60006060830160008301518482036000860152610e258282610ca6565b91505060208301518482036020860152610e3f8282610ca6565b91505060408301518482036040860152610e598282610ca6565b9150508091505092915050565b60006060830160008301518482036000860152610e838282610ca6565b91505060208301518482036020860152610e9d8282610ca6565b91505060408301518482036040860152610eb78282610ca6565b9150508091505092915050565b6000610ed08284610d18565b915081905092915050565b6000610ee78284610d49565b915081905092915050565b60006020820190508181036000830152610f0c8184610c31565b905092915050565b60006060820190508181036000830152610f2e8186610cdf565b90508181036020830152610f428185610cdf565b90508181036040830152610f568184610cdf565b9050949350505050565b60006020820190508181036000830152610f7981610dc8565b9050919050565b60006020820190508181036000830152610f9a8184610e66565b905092915050565b6000604051905081810181811067ffffffffffffffff82111715610fc957610fc86111ae565b5b8060405250919050565b600067ffffffffffffffff821115610fee57610fed6111ae565b5b601f19601f8301169050602081019050919050565b6000819050602082019050919050565b60008190508160005260206000209050919050565b600081519050919050565b600081519050919050565b6000602082019050919050565b600082825260208201905092915050565b600082825260208201905092915050565b600082825260208201905092915050565b600081905092915050565b6000819050919050565b82818337600083830152505050565b60005b838110156110c05780820151818401526020810190506110a5565b838111156110cf576000848401525b50505050565b600060028204905060018216806110ed57607f821691505b602082108114156111015761110061117f565b5b50919050565b600061111282611089565b91507fffffffffffffffffffffffffffffffffffffffffffffffffffffffffffffffff82141561114557611144611150565b5b600182019050919050565b7f4e487b7100000000000000000000000000000000000000000000000000000000600052601160045260246000fd5b7f4e487b7100000000000000000000000000000000000000000000000000000000600052602260045260246000fd5b7f4e487b7100000000000000000000000000000000000000000000000000000000600052604160045260246000fd5b6000601f19601f830116905091905056fea264697066735822122057d7f2070e24077d99f6f82c507c078ad02b479234f59aba2e408b60c51fd5c664736f6c63430008000033",
  "immutableReferences": {},
  "source": "// SPDX-License-Identifier: MIT\r\npragma solidity ^0.8.0;\r\n\r\ncontract MyContract {\r\n    struct FileInfo {\r\n        string fileName;\r\n        string caseNumber;\r\n        string ipfsHash;\r\n    }\r\n\r\n    FileInfo[] private files;\r\n    mapping(address => FileInfo[]) private userFileList;\r\n\r\n    event FileUploaded(address indexed user, string fileName, string caseNumber, string ipfsHash);\r\n\r\n    function uploadFile(string memory fileName, string memory caseNumber, string memory ipfsHash) public {\r\n        FileInfo memory newFile = FileInfo(fileName, caseNumber, ipfsHash);\r\n        files.push(newFile);\r\n        userFileList[msg.sender].push(newFile);\r\n        emit FileUploaded(msg.sender, fileName, caseNumber, ipfsHash);\r\n    }\r\n\r\n    function getAllFiles() public view returns (FileInfo[] memory) {\r\n        return files;\r\n    }\r\n\r\n    function getUserFiles() public view returns (FileInfo[] memory) {\r\n        return userFileList[msg.sender];\r\n    }\r\n\r\n    function getFileByHash(string memory ipfsHash) public view returns (FileInfo memory) {\r\n        for (uint i = 0; i < files.length; i++) {\r\n            if (keccak256(abi.encodePacked(files[i].ipfsHash)) == keccak256(abi.encodePacked(ipfsHash))) {\r\n                return files[i];\r\n            }\r\n        }\r\n        revert(\"File not found\");\r\n    }\r\n}\r\n",
  "sourcePath": "C:\\Users\\Admin\\Desktop\\Gov-porject\\ReactPractice\\myapp\\contracts\\MyContract.sol",
  "compiler": {
    "name": "solc",
    "version": "0.8.0+commit.c7dfd78e.Emscripten.clang"
  },
  "schemaVersion": "3.4.16",
  "updatedAt": "2024-08-08T06:24:13.953Z",
  "networkType": "ethereum",
  "devdoc": {
    "kind": "dev",
    "methods": {},
    "version": 1
  },
  "userdoc": {
    "kind": "user",
    "methods": {},
    "version": 1
  }
}